:020000040800F2
:1000000000500020DD1000086D100008731000087B
:10001000791000087F10000885100008000000001B
:100020000000000000000000000000008B1000082D
:100030009710000800000000A3100008AF1000088F
:1000400025110008251100082511000825110008B8
:1000500025110008251100082511000825110008A8
:100060002511000825110008251100082511000898
:100070002511000825110008251100082511000888
:100080002511000825110008251100082511000878
:100090002511000825110008251100082511000868
:1000A0002511000825110008251100082511000858
:1000B000BD100008251100082511000825110008B1
:1000C0002511000825110008251100082511000838
:1000D0002511000825110008251100082511000828
:1000E0002511000825110008251100080000000056
:1000F0000000000000000000000000000000000000
:0C01000000000000000000005FF808F1A3
:10010C0010B5054C237833B9044B13B10448AFF345
:10011C0000800123237010BD60000020000000004F
:10012C00BC27000808B5034B1BB103490348AFF3C8
:10013C00008008BD0000000064000020BC270008FF
:10014C0080B483B000AF7860094A7B6852F82330E2
:10015C00012B06D1064A7B68002142F823100123AB
:10016C0000E0002318460C37BD4680BC704700BF2A
:10017C007C00002080B483B000AF7860044A7B68B8
:10018C00012142F8231000BF0C37BD4680BC7047DC
:10019C007C00002080B582B000AF00237B606AE059
:1001AC00394A7B6852F8232038497B6841F8232070
:1001BC00374A7B6852F8232033497B6841F8232067
:1001CC00344A7B6852F823309BB21946324801F00E
:1001DC0099FA034619462E4A7B6842F823102A4A9C
:1001EC007B6852F8232029497B6851F823309A42C6
:1001FC003ED1254A7B6852F8232025497B6851F86B
:10020C0023309A4234D1224A7B6852F82320234966
:10021C007B6851F823309A4215D01D4A7B6852F8FE
:10022C0023201E497B6841F823201C4A7B6852F826
:10023C002330002B1CD11A4B4FF416721A607868BD
:10024C00FFF798FF14E0164B1B68013B144A136030
:10025C00134B1B68002B0BD10D4A7B6852F82330D3
:10026C00002B02D17868FFF785FF0D4B64221A60D2
:10027C007B6801337B607B68022B91DD00BF00BF84
:10028C000837BD4680BD00BF180000200C000020C0
:10029C00240000200000002000100140300000204D
:1002AC003C00002080B500AF9E4B1B68033B072B26
:1002BC0000F2E78201A252F823F000BFE902000825
:1002CC000B030008C1030008770400085905000857
:1002DC00FD050008D1060008D90700084FF47A7014
:1002EC0000F006FE904B1B68184600F01BFE8E4B70
:1002FC001B688E4A13608B4B04221A60D0E20022DA
:10030C004FF480518A4801F014FA01224FF4006135
:10031C00874801F00EFA01224FF40041844801F0A5
:10032C0008FA01222021824801F003FA012240211F
:10033C007F4801F0FEF9002280217D4801F0F9F997
:10034C007C4B1B68012B09D1784B1B68A3F57A7386
:10035C00764A13604FF47A7000F0CAFD0020FFF764
:10036C00EFFE0346002B13D06E4B08221A60724B23
:10037C001B68724A13606C4B1B68714A13606F4B9D
:10038C001B686A4A136000F05DFC0A2000F0B0FDA7
:10039C006C4B1B68012B40F07682624B05221A6075
:1003AC00694B1B68614A1360674B1B68184600F069
:1003BC00B9FD68E200224FF480515D4801F0B9F9B3
:1003CC0001224FF400615A4801F0B3F901224FF4B5
:1003DC000041574801F0ADF901222021544801F0A9
:1003EC00A8F900224021524801F0A3F901228021F2
:1003FC004F4801F09EF94F4B1B68012B09D14B4B19
:10040C001B68A3F57A73494A13604FF47A7000F0B5
:10041C006FFD0020FFF794FE0346002B13D0414BD9
:10042C0008221A60444B1B68444A13603E4B1B68FD
:10043C00434A1360414B1B683C4A136000F002FCBA
:10044C000A2000F055FD3F4B1B68012B40F01D822C
:10045C00344B06221A60384B1B68344A1360324BFB
:10046C001B68184600F05EFD0FE201224FF480512C
:10047C002F4801F05EF901224FF400612C4801F085
:10048C0058F900224FF40041294801F052F900229A
:10049C002021274801F04DF901224021244801F088
:1004AC0048F901228021224801F043F9214B1B68B5
:1004BC00012B09D11D4B1B68A3F57A731B4A1360E2
:1004CC004FF47A7000F014FD0020FFF739FE03465C
:1004DC00002B19D0134B08221A60174B1B68174AB4
:1004EC001360114B1B68164A1360144B1B680F4AA0
:1004FC0013600E4B1B68DBB2184600F0E5F900F0F8
:10050C00A1FB0A2000F0F4FC0E4B1B68012B40F001
:10051C00BE81044B07221A600B4B1B68184600F077
:10052C0001FDB4E14C0000204800002094000020A4
:10053C0000080140E400002040000020880000205A
:10054C0090000020EC0000204400002001224FF419
:10055C008051934801F0EDF800224FF4006190486F
:10056C0001F0E7F801224FF400418D4801F0E1F869
:10057C00002220218A4801F0DCF801224021884821
:10058C0001F0D7F801228021854801F0D2F8854B83
:10059C001B68012B09D1844B1B68A3F57A73824A23
:1005AC0013604FF47A7000F0A3FC0020FFF7C8FD35
:1005BC000346002B13D07D4B08221A607C4B1B6822
:1005CC007C4A13607C4B1B687C4A1360794B1B681C
:1005DC00754A136000F036FB0A2000F089FC784B5A
:1005EC001B68012B40F05581704B03221A6050E1BF
:1005FC006C4B1B68012B0CD14FF48051684801F0F7
:10060C00B0F82021664801F0ACF84FF4FA7000F015
:10061C006FFC0120FFF794FD0346002B20D0654BA7
:10062C001B6803F57A73634A1360644B1B6803F50C
:10063C007A73624A13605F4B1B6842F22832934212
:10064C000ADD5C4B42F228321A605E4B1B68C3F524
:10065C000C532833594A1360564B1B68524A13608B
:10066C000020FFF76DFD0346002B1BD0514B1B6880
:10067C004F4A1360514B1B684F4A13604B4B092276
:10068C001A6000F0DFFA4A4B1B684A4A13604D4B64
:10069C001B684D4A13604C4B1B68434A13600A207D
:1006AC0000F026FC0220FFF74BFD0346002B00F068
:1006BC00F280404B1B683E4A1360404B1B683E4A1D
:1006CC001360E8E0374B1B68012B0CD14FF4006131
:1006DC00334801F046F84021314801F042F84FF41C
:1006EC00FA7000F005FC0120FFF72AFD0346002BF1
:1006FC0023D0304B1B6803F57A732E4A1360324BB0
:10070C001B6803F57A73304A13602F4B1A682A4B17
:10071C001B68134442F2283293420ADD264B1B68B5
:10072C00C3F50C532833284A1360224B42F228326B
:10073C001A60254B1B681C4A13600020FFF700FD54
:10074C000346002B1BD01B4B1B68194A13601E4B16
:10075C001B681C4A1360154B0A221A6000F072FACF
:10076C00134B1B68134A1360134B1B68134A13601B
:10077C00124B1B680C4A13600A2000F0B9FB0220D4
:10078C00FFF7DEFC0346002B00F08780094B1B684B
:10079C00074A13600C4B1B680A4A13607DE000BFCC
:1007AC0000080140E4000020940000204C000020D0
:1007BC00400000208800002048000020900000200D
:1007CC00EC000020440000208C000020354B1B68FE
:1007DC00012B0CD14FF40041334800F0C2FF8021B3
:1007EC00314800F0BEFF4FF4FA7000F081FB01209D
:1007FC00FFF7A6FC0346002B23D02C4B1B6803F5FC
:10080C007A732A4A13602A4B1B6803F57A73284AB9
:10081C001360264B1A68274B1B68134442F228328C
:10082C0093420ADD234B1B68C3F50C5328331F4A34
:10083C0013601F4B42F228321A601C4B1B681E4A75
:10084C0013600020FFF77CFC0346002B0AD0184BEA
:10085C001B681A4A1360154B1B68194A1360194B15
:10086C0003221A600220FFF76BFC0346002B16D004
:10087C000F4B1B68114A13600C4B1B68104A13601A
:10088C000DE000BF0CE000BF0AE000BF08E000BFB5
:10089C0006E000BF04E000BF02E000BF00E000BFC4
:1008AC0000BF80BDE4000020000801409000002043
:1008BC00880000204400002094000020400000200C
:1008CC00480000204C00002080B582B000AF0346E9
:1008DC00FB71FB79092B00F2898101A252F823F0FC
:1008EC00150900085F090008A9090008F3090008A8
:1008FC003D0A0008870A0008D10A00081B0B0008F3
:10090C00650B0008AF0B000800220221CC4800F058
:10091C0010FF00220421CA4800F00BFF002208211E
:10092C00C74800F006FF00221021C54800F001FF67
:10093C0000222021C24800F0FCFE00224021C048C9
:10094C0000F0F7FE01224FF48071BD4800F0F1FE7B
:10095C0071E101220221BA4800F0EBFE00220421D1
:10096C00B74800F0E6FE00220821B54800F0E1FE91
:10097C0001221021B24800F0DCFE01222021B048F7
:10098C0000F0D7FE01224021AD4800F0D2FE01223A
:10099C004FF48071AA4800F0CCFE4CE100220221F9
:1009AC00A74800F0C6FE00220421A54800F0C1FEB5
:1009BC0001220821A24800F0BCFE00221021A04810
:1009CC0000F0B7FE002220219D4800F0B2FE01226B
:1009DC0040219B4800F0ADFE00224FF480719848F6
:1009EC0000F0A7FE27E100220221954800F0A1FEAD
:1009FC0000220421924800F09CFE0022082190481D
:100A0C0000F097FE002210218D4800F092FE01228A
:100A1C0020218B4800F08DFE01224021884800F0F7
:100A2C0088FE00224FF48071854800F082FE02E1BE
:100A3C0001220221824800F07CFE00220421804821
:100A4C0000F077FE002208217D4800F072FE0122A2
:100A5C0010217B4800F06DFE01222021784800F027
:100A6C0068FE00224021764800F063FE00224FF41D
:100A7C008071734800F05DFEDDE0002202217048B9
:100A8C0000F057FE012204216D4800F052FE0022B6
:100A9C0008216B4800F04DFE00221021684800F040
:100AAC0048FE01222021664800F043FE002240212E
:100ABC00634800F03EFE00224FF48071604800F065
:100ACC0038FEB8E0002202215D4800F032FE01221F
:100ADC0004215B4800F02DFE00220821584800F04C
:100AEC0028FE00221021564800F023FE002220216F
:100AFC00534800F01EFE00224021514800F019FE20
:100B0C0000224FF480714E4800F013FE93E0002257
:100B1C0002214B4800F00DFE00220421484800F051
:100B2C0008FE00220821464800F003FE0122102195
:100B3C00434800F0FEFD01222021414800F0F9FD60
:100B4C00012240213E4800F0F4FD01224FF4807157
:100B5C003B4800F0EEFD6EE000220221384800F028
:100B6C00E8FD00220421364800F0E3FD00220821B4
:100B7C00334800F0DEFD00221021314800F0D9FD91
:100B8C00002220212E4800F0D4FD002240212C48C8
:100B9C0000F0CFFD00224FF48071294800F0C9FD10
:100BAC0049E000220221264800F0C3FD0022042166
:100BBC00234800F0BEFD00220821214800F0B9FDB9
:100BCC00002210211E4800F0B4FD012220211C48F7
:100BDC0000F0AFFD00224021194800F0AAFD0022D0
:100BEC004FF48071164800F0A4FD24E0012202218C
:100BFC00134800F09EFD01220421114800F099FDDC
:100C0C00012208210E4800F094FD012210210C480D
:100C1C0000F08FFD01222021094800F08AFD0122FD
:100C2C004021074800F085FD01224FF480710448F3
:100C3C0000F07FFD00BF00BF0837BD4680BD00BF80
:100C4C00000C014080B500AF01224FF480511048D8
:100C5C0000F06FFD01224FF400410D4800F069FDDA
:100C6C0001224FF400610A4800F063FD01222021AB
:100C7C00074800F05EFD01228021054800F059FD77
:100C8C0001224021024800F054FD00BF80BD00BF8E
:100C9C000008014080B500AF00F040FA00F01CF8ED
:100CAC0000F0A2F800F054F8084801F0ABF9084B3A
:100CBC001B68084A82FB03129211DB17D31ADBB2B2
:100CCC001846FFF701FEFFF7EDFAF0E79800002059
:100CDC0094000020D34D621080B590B000AF07F1A6
:100CEC00180328220021184601F05AFD3B1D002252
:100CFC001A605A609A60DA601A610223BB610123A0
:100D0C00BB621023FB6200237B6307F118031846B8
:100D1C0000F040FD0346002B01D000F0E3F80F2358
:100D2C007B600023BB600023FB6000233B6100233E
:100D3C007B613B1D0021184600F0AEFF0346002BE3
:100D4C0001D000F0CFF800BF4037BD4680BD000099
:100D5C0080B586B000AF07F1080300221A605A6014
:100D6C009A60DA603B4600221A605A601D4B4FF0C5
:100D7C0080421A601B4B41F63F725A60194B00229D
:100D8C009A60184B0922DA60164B00221A61154B37
:100D9C0000229A61134801F0E5F80346002B01D0BC
:100DAC0000F0A0F84FF48053BB6007F1080319461C
:100DBC000C4801F081FA0346002B01D000F092F8A8
:100DCC0000233B6000237B603B461946054801F03D
:100DDC0053FC0346002B01D000F084F800BF1837F9
:100DEC00BD4680BD9800002080B588B000AF07F1EB
:100DFC00100300221A605A609A60DA602F4B9B69CC
:100E0C002E4A43F0100393612C4B9B6903F01003A3
:100E1C00FB60FB68294B9B69284A43F004039361F0
:100E2C00264B9B6903F00403BB60BB68234B9B6997
:100E3C00224A43F008039361204B9B6903F008039B
:100E4C007B607B68002249F6E0011D4800F071FCD4
:100E5C0000224FF4BF711B4800F06BFC4AF20403F4
:100E6C003B6100237B610123BB6107F11003194631
:100E7C00154800F0C3FA49F6E0033B6101237B619E
:100E8C000023BB610223FB6107F1100319460C48D8
:100E9C0000F0B4FA4FF4BF733B6101237B61002374
:100EAC00BB610223FB6107F110031946054800F0F2
:100EBC00A5FA00BF2037BD4680BD00BF0010024020
:100ECC0000080140000C01400010014080B582B0C8
:100EDC0000AF786000F040F8FFF75CF900BF08370E
:100EEC00BD4680BD80B400AF72B600BFFEE7000007
:100EFC0080B483B000AF7860074B1B687A6892FBB4
:100F0C00F3F3064A1360064B00221A6000BF0C373D
:100F1C00BD4680BC704700BF50000020E0000020A0
:100F2C00E400002080B483B000AF7860074B1B68EE
:100F3C007A6892FBF3F3064A1360064B00221A60A0
:100F4C0000BF0C37BD4680BC704700BF500000206E
:100F5C00E8000020EC00002080B400AF114B1B68AF
:100F6C00002B0BDD0F4B1B68013B0E4A13600D4B26
:100F7C001B68002B02D10C4B01221A600B4B1B6817
:100F8C00002B0BDD094B1B68013B084A1360074B18
:100F9C001B68002B02D1064B01221A6000BFBD4614
:100FAC0080BC7047E0000020E4000020E800002036
:100FBC00EC00002080B485B000AF154B9B69144A3F
:100FCC0043F001039361124B9B6903F00103BB6077
:100FDC00BB680F4BDB690E4A43F08053D3610C4B5B
:100FEC00DB6903F080537B607B680A4B5B68FB60BA
:100FFC00FB6823F0E063FB60FB6843F00073FB606D
:10100C00044AFB68536000BF1437BD4680BC704770
:10101C00001002400000014080B584B000AF786041
:10102C007B681B68B3F1804F13D10C4BDB690B4A07
:10103C0043F00103D361094BDB6903F00103FB604F
:10104C00FB68002200211C2000F0A1F91C2000F0FC
:10105C00BAF900BF1037BD4680BD00BF001002407A
:10106C0080B400AFFEE780B400AFFEE780B400AF01
:10107C00FEE780B400AFFEE780B400AFFEE780B4BB
:10108C0000AF00BFBD4680BC704780B400AF00BF4E
:10109C00BD4680BC704780B400AF00BFBD4680BC6D
:1010AC00704780B500AF00F07FF800BF80BD000036
:1010BC0080B500AF024800F0F7FF00BF80BD00BF55
:1010CC009800002080B400AF00BFBD4680BC7047C4
:1010DC000C480D490D4A002302E0D458C450043387
:1010EC00C4188C42F9D30A4A0A4C002301E013605D
:1010FC000432A242FBD3FFF7E5FF01F02DFBFFF713
:10110C00C9FD70470000002060000020FC2700088B
:10111C0060000020F4000020FEE7000080B500AF66
:10112C00084B1B68074A43F010031360032000F0C0
:10113C0023F90F2000F008F8FFF73CFF00231846B6
:10114C0080BD00BF0020024080B582B000AF786047
:10115C00124B1A68124B1B7819464FF47A73B3FB77
:10116C00F1F3B2FBF3F3184600F03BF90346002B06
:10117C0001D001230EE07B680F2B0AD8002279687E
:10118C004FF0FF3000F003F9064A7B681360002330
:10119C0000E0012318460837BD4680BD54000020EE
:1011AC005C0000205800002080B400AF054B1B7879
:1011BC001A46054B1B681344034A136000BFBD4617
:1011CC0080BC70475C000020F000002080B400AFB1
:1011DC00024B1B681846BD4680BC7047F0000020CF
:1011EC0080B485B000AF78607B6803F00703FB60C8
:1011FC000C4BDB68BB60BA684FF6FF031340BB6057
:10120C00FB681A02BB68134343F0BF6343F400331B
:10121C00BB60044ABB68D36000BF1437BD4680BCBA
:10122C00704700BF00ED00E080B400AF044BDB68FA
:10123C001B0A03F007031846BD4680BC704700BF6D
:10124C0000ED00E080B483B000AF0346FB7197F96A
:10125C000730002B0BDBFB7903F01F02064997F9D3
:10126C0007305B09012000FA02F241F8232000BF8D
:10127C000C37BD4680BC704700E100E080B483B001
:10128C0000AF03463960FB7197F90730002B0ADB7E
:10129C003B68DAB20C4997F907301201D2B20B4411
:1012AC0083F800230AE03B68DAB20849FB7903F0C3
:1012BC000F03043B1201D2B20B441A7600BF0C3759
:1012CC00BD4680BC704700BF00E100E000ED00E0CF
:1012DC0080B489B000AFF860B9607A60FB6803F045
:1012EC000703FB61FB69C3F10703042B28BF04232D
:1012FC00BB61FB690433062B02D9FB69033B00E09D
:10130C0000237B614FF0FF32BB6902FA03F3DA432F
:10131C00BB681A407B699A404FF0FF317B6901FA38
:10132C0003F3D9437B680B40134318462437BD465F
:10133C0080BC704780B582B000AF78607B68013BA1
:10134C00B3F1807F01D301230FE00A4A7B68013B94
:10135C0053600F214FF0FF30FFF790FF054B002239
:10136C009A60044B07221A60002318460837BD46C2
:10137C0080BD00BF10E000E080B582B000AF7860A7
:10138C007868FFF72DFF00BF0837BD4680BD80B5DC
:10139C0086B000AF0346B9607A60FB7300237B61B3
:1013AC00FFF742FF78617A68B9687869FFF790FFB8
:1013BC00024697F90F3011461846FFF75FFF00BF42
:1013CC001837BD4680BD80B582B000AF0346FB71B7
:1013DC0097F907301846FFF735FF00BF0837BD46B1
:1013EC0080BD80B582B000AF78607868FFF7A2FF4F
:1013FC00034618460837BD4680BD000080B48BB04C
:10140C0000AF7860396000237B6200233B6269E1A6
:10141C0001227B6A02FA03F3FB613B681B68FA69E1
:10142C001340BB61BA69FB699A4240F058813B6832
:10143C005B689A4A93425ED0984A934275D8984A10
:10144C00934258D0964A93426FD8964A934252D0C0
:10145C00944A934269D8944A93424CD0924A93420C
:10146C0063D8924A934246D0904A93425DD8122B4D
:10147C002AD8122B59D801A252F823F003150008D0
:10148C00DD140008EF1400083115000837150008AA
:10149C0037150008371500083715000837150008F0
:1014AC0037150008371500083715000837150008E0
:1014BC0037150008371500083715000837150008D0
:1014CC00E5140008F9140008794A934213D02CE073
:1014DC003B68DB683B6229E03B68DB6804333B62BA
:1014EC0024E03B68DB6808333B621FE03B68DB6849
:1014FC000C333B621AE03B689B68002B02D104233F
:10150C003B6213E03B689B68012B05D108233B62CF
:10151C007B68FA691A6109E008233B627B68FA6907
:10152C005A6103E000233B6200E000BFBB69FF2B64
:10153C0001D87B6801E07B6804337B61BB69FF2BBE
:10154C0002D87B6A9B0002E07B6A083B9B003B61F4
:10155C007B691A680F213B6901FA03F3DB431A40DC
:10156C00396A3B6901FA03F31A437B691A603B68D9
:10157C005B6803F08053002B00F0B1804D4B9B69EE
:10158C004C4A43F0010393614A4B9B6903F00103FE
:10159C00BB60BB68484A7B6A9B08023352F8233015
:1015AC00FB607B6A03F003039B000F2202FA03F338
:1015BC00DB43FA681340FB607B68404A934213D0CC
:1015CC007B683F4A93420DD07B683E4A934207D0DA
:1015DC007B683D4A934201D1032306E0042304E0D7
:1015EC00022302E0012300E000237A6A02F00302E6
:1015FC0092009340FA681343FB602F497B6A9B0867
:10160C000233FA6841F823203B685B6803F48033AB
:10161C00002B06D02D4B1A682C49BB6913430B6069
:10162C0006E02A4B1A68BB69DB43284913400B6060
:10163C003B685B6803F40033002B06D0234B5A68DD
:10164C002249BB6913434B6006E0204B5A68BB69C7
:10165C00DB431E4913404B603B685B6803F480130B
:10166C00002B06D0194B9A681849BB6913438B6041
:10167C0006E0164B9A68BB69DB43144913408B6038
:10168C003B685B6803F40013002B21D00F4BDA6826
:10169C000E49BB691343CB6021E000BF0000321040
:1016AC000000311000002210000021100000121068
:1016BC000000111000100240000001400008014021
:1016CC00000C0140001001400014014000040140D6
:1016DC000B4BDA68BB69DB4309491340CB607B6A6F
:1016EC0001337B623B681A687B6A22FA03F3002B96
:1016FC007FF48EAE00BF00BF2C37BD4680BC704758
:10170C000004014080B485B000AF78600B467B804C
:10171C007B689A687B881340002B02D00123FB73F3
:10172C0001E00023FB73FB7B18461437BD4680BCDD
:10173C00704780B483B000AF78600B467B80134653
:10174C007B707B78002B03D07A887B681A6103E06E
:10175C007B881A047B681A6100BF0C37BD4680BCBD
:10176C00704780B485B000AF78600B467B807B6897
:10177C00DB68FB607A88FB6813401A04FB68D9436A
:10178C007B880B401A437B681A6100BF1437BD4637
:10179C0080BC704780B586B000AF78607B68002B4A
:1017AC0001D1012372E27B681B6803F00103002B5B
:1017BC0000F08780924B5B6803F00C03042B0CD079
:1017CC008F4B5B6803F00C03082B12D18C4B5B68BE
:1017DC0003F48033B3F5803F0BD1894B1B6803F4C2
:1017EC000033002B6CD07B685B68002B68D1012325
:1017FC004CE27B685B68B3F5803F06D1804B1B687D
:10180C007F4A43F4803313602EE07B685B68002BC7
:10181C000CD17B4B1B687A4A23F480331360784BD2
:10182C001B68774A23F4802313601DE07B685B6898
:10183C00B3F5A02F0CD1724B1B68714A43F4802373
:10184C0013606F4B1B686E4A43F4803313600BE0DC
:10185C006B4B1B686A4A23F480331360684B1B681C
:10186C00674A23F4802313607B685B68002B13D0DA
:10187C00FFF7ACFC386108E0FFF7A8FC02463B69B7
:10188C00D31A642B01D9032300E25D4B1B6803F4CC
:10189C000033002BF0D014E0FFF798FC386108E01F
:1018AC00FFF794FC02463B69D31A642B01D903233E
:1018BC00ECE1534B1B6803F40033002BF0D100E038
:1018CC0000BF7B681B6803F00203002B63D04C4BFA
:1018DC005B6803F00C03002B0BD0494B5B6803F0E7
:1018EC000C03082B1CD1464B5B6803F48033002B94
:1018FC0016D1434B1B6803F00203002B05D07B6809
:10190C001B69012B01D00123C0E13D4B1B6823F067
:10191C00F8027B685B69DB00394913430B603AE0E2
:10192C007B681B69002B20D0364B01221A60FFF715
:10193C004DFC386108E0FFF749FC02463B69D31ABD
:10194C00022B01D90323A1E12D4B1B6803F00203E9
:10195C00002BF0D02A4B1B6823F0F8027B685B69E4
:10196C00DB00274913430B6015E0264B00221A605D
:10197C00FFF72CFC386108E0FFF728FC02463B69B6
:10198C00D31A022B01D9032380E11D4B1B6803F0F2
:10199C000203002BF0D17B681B6803F00803002BBB
:1019AC003AD07B689B69002B19D0174B01221A6027
:1019BC00FFF70CFC386108E0FFF708FC02463B69B6
:1019CC00D31A022B01D9032360E10D4B5B6A03F0A0
:1019DC000203002BF0D0012000F0A6FA1CE00A4B09
:1019EC0000221A60FFF7F2FB38610FE0FFF7EEFB05
:1019FC0002463B69D31A022B08D9032346E100BFE8
:101A0C00001002400000424280044242924B5B6A4A
:101A1C0003F00203002BE9D17B681B6803F004037D
:101A2C00002B00F0A6800023FB758B4BDB6903F0C9
:101A3C008053002B0DD1884BDB69874A43F08053D0
:101A4C00D361854BDB6903F08053BB60BB6801231A
:101A5C00FB75824B1B6803F48073002B18D17F4BF2
:101A6C001B687E4A43F480731360FFF7AFFB386149
:101A7C0008E0FFF7ABFB02463B69D31A642B01D994
:101A8C00032303E1754B1B6803F48073002BF0D028
:101A9C007B68DB68012B06D16F4B1B6A6E4A43F0E7
:101AAC00010313622DE07B68DB68002B0CD16A4BC1
:101ABC001B6A694A23F001031362674B1B6A664A6F
:101ACC0023F0040313621CE07B68DB68052B0CD14C
:101ADC00614B1B6A604A43F0040313625E4B1B6A42
:101AEC005D4A43F0010313620BE05B4B1B6A5A4ADD
:101AFC0023F001031362584B1B6A574A23F004036B
:101B0C0013627B68DB68002B15D0FFF75FFB386135
:101B1C000AE0FFF75BFB02463B69D31A41F28832BD
:101B2C00934201D90323B1E04B4B1B6A03F0020330
:101B3C00002BEED014E0FFF749FB38610AE0FFF709
:101B4C0045FB02463B69D31A41F28832934201D9D4
:101B5C0003239BE0404B1B6A03F00203002BEED1E6
:101B6C00FB7D012B05D13C4BDB693B4A23F08053B9
:101B7C00D3617B68DB69002B00F08780364B5B6898
:101B8C0003F00C03082B61D07B68DB69022B46D178
:101B9C00334B00221A60FFF719FB386108E0FFF79E
:101BAC0015FB02463B69D31A022B01D903236DE0C6
:101BBC00294B1B6803F00073002BF0D17B681B6A68
:101BCC00B3F5803F08D1244B5B6823F400327B686B
:101BDC009B68214913434B601F4B5B6823F47412C1
:101BEC007B68196A7B685B6A0B431B4913434B6028
:101BFC001B4B01221A60FFF7E9FA386108E0FFF786
:101C0C00E5FA02463B69D31A022B01D903233DE0C6
:101C1C00114B1B6803F00073002BF0D035E0104B18
:101C2C0000221A60FFF7D2FA386108E0FFF7CEFA0B
:101C3C0002463B69D31A022B01D9032326E0064B3B
:101C4C001B6803F00073002BF0D11EE07B68DB698E
:101C5C00012B07D1012319E0001002400070004055
:101C6C00600042420B4B5B68FB60FB6803F4803204
:101C7C007B681B6A9A4206D1FB6803F470127B687E
:101C8C005B6A9A4201D0012300E000231846183702
:101C9C00BD4680BD0010024080B584B000AF7860B6
:101CAC0039607B68002B01D10123D0E06A4B1B68A3
:101CBC0003F007033A689A4210D9674B1B6823F06C
:101CCC00070265493B6813430B60634B1B6803F0C9
:101CDC0007033A689A4201D00123B8E07B681B687D
:101CEC0003F00203002B20D07B681B6803F0040375
:101CFC00002B05D0594B5B68584A43F4E0635360A2
:101D0C007B681B6803F00803002B05D0534B5B6802
:101D1C00524A43F460535360504B5B6823F0F0021B
:101D2C007B689B684D4913434B607B681B6803F0D1
:101D3C000103002B40D07B685B68012B07D1474B1C
:101D4C001B6803F40033002B15D101237FE07B6863
:101D5C005B68022B07D1414B1B6803F00073002B0F
:101D6C0009D1012373E03D4B1B6803F00203002BE8
:101D7C0001D101236BE0394B5B6823F003027B68D4
:101D8C005B68364913434B60FFF720FAF8600AE0B2
:101D9C00FFF71CFA0246FB68D31A41F288329342D1
:101DAC0001D9032353E02D4B5B6803F00C027B68D5
:101DBC005B689B009A42EBD1274B1B6803F007032F
:101DCC003A689A4210D2244B1B6823F0070222492E
:101DDC003B6813430B60204B1B6803F007033A6806
:101DEC009A4201D0012332E07B681B6803F00403A4
:101DFC00002B08D0194B5B6823F4E0627B68DB682E
:101E0C00164913434B607B681B6803F00803002BD7
:101E1C0009D0124B5B6823F460527B681B69DB00B2
:101E2C000E4913434B6000F021F802460B4B5B68E4
:101E3C001B0903F00F030A49CB5C22FA03F3094A8E
:101E4C001360094B1B681846FFF77EF900231846F0
:101E5C001037BD4680BD00BF00200240001002407C
:101E6C00E4270008540000205800002090B48AB0E9
:101E7C0000AF294B3C1D0FCB84E80F0040F201232F
:101E8C003B800023FB610023BB6100237B620023AA
:101E9C007B6100233B62214B5B68FB61FB6903F0B8
:101EAC000C03042B02D0082B03D02BE01C4B3B6201
:101EBC002BE0FB699B0C03F00F0328333B4413F816
:101ECC00243C7B61FB6903F48033002B12D0134B51
:101EDC005B685B0C03F0010328333B4413F8283C8C
:101EEC00BB617B690E4A03FB02F2BB69B2FBF3F3E5
:101EFC007B6204E07B690B4A02FB03F37B627B6A27
:101F0C003B6202E0064B3B6200BF3B6A1846283737
:101F1C00BD4690BC704700BFD4270008001002409B
:101F2C0000127A0000093D0080B485B000AF7860E3
:101F3C000A4B1B680A4AA2FB03235B0A7A6802FB62
:101F4C0003F3FB6000BFFB685A1EFA60002BF9D14B
:101F5C0000BF00BF1437BD4680BC70475400002042
:101F6C00D34D621080B582B000AF78607B68002BD7
:101F7C0001D1012341E07B6893F83D30DBB2002BAB
:101F8C0006D17B68002283F83C207868FFF744F880
:101F9C007B68022283F83D207B681A687B680433D7
:101FAC001946104600F070FA7B68012283F846202F
:101FBC007B68012283F83E207B68012283F83F2056
:101FCC007B68012283F840207B68012283F8412042
:101FDC007B68012283F842207B68012283F843202E
:101FEC007B68012283F844207B68012283F845201A
:101FFC007B68012283F83D20002318460837BD4634
:10200C0080BD000080B485B000AF78607B6893F829
:10201C003D30DBB2012B01D001233AE07B68022278
:10202C0083F83D207B681B68DA687B681B6842F08C
:10203C000102DA607B681B68184A93420ED07B68F9
:10204C001B68B3F1804F09D07B681B68144A93421C
:10205C0004D07B681B68134A934211D17B681B68C0
:10206C009B6803F00703FB60FB68062B10D07B68B2
:10207C001B681A687B681B6842F001021A6007E053
:10208C007B681B681A687B681B6842F001021A6047
:10209C00002318461437BD4680BC7047002C014005
:1020AC00000400400008004080B582B000AF7860AA
:1020BC007B681B681B6903F00203022B22D17B682F
:1020CC001B68DB6803F00203022B1BD17B681B68C7
:1020DC006FF002021A617B6801221A777B681B6819
:1020EC009B6903F00303002B03D0786800F0B1F96F
:1020FC0005E0786800F0A4F9786800F0B3F97B6823
:10210C0000221A777B681B681B6903F00403042BFD
:10211C0022D17B681B68DB6803F00403042B1BD102
:10212C007B681B686FF004021A617B6802221A77C5
:10213C007B681B689B6903F44073002B03D07868A1
:10214C0000F087F905E0786800F07AF9786800F01B
:10215C0089F97B6800221A777B681B681B6903F07E
:10216C000803082B22D17B681B68DB6803F008038B
:10217C00082B1BD17B681B686FF008021A617B6807
:10218C0004221A777B681B68DB6903F00303002BBE
:10219C0003D0786800F05DF905E0786800F050F93C
:1021AC00786800F05FF97B6800221A777B681B68FF
:1021BC001B6903F01003102B22D17B681B68DB68B2
:1021CC0003F01003102B1BD17B681B686FF01002FF
:1021DC001A617B6808221A777B681B68DB6903F439
:1021EC004073002B03D0786800F033F905E0786871
:1021FC0000F026F9786800F035F97B6800221A7730
:10220C007B681B681B6903F00103012B0ED17B68F3
:10221C001B68DB6803F00103012B07D17B681B688B
:10222C006FF001021A617868FEF750FE7B681B683C
:10223C001B6903F08003802B0ED17B681B68DB6865
:10224C0003F08003802B07D17B681B686FF0800242
:10225C001A61786800F077FA7B681B681B6903F0D9
:10226C004003402B0ED17B681B68DB6803F04003F6
:10227C00402B07D17B681B686FF040021A617868AD
:10228C0000F0F9F87B681B681B6903F02003202B16
:10229C000ED17B681B68DB6803F02003202B07D171
:1022AC007B681B686FF020021A61786800F042FAB4
:1022BC0000BF0837BD4680BD80B584B000AF7860E4
:1022CC0039607B6893F83C30012B01D10223B3E0D9
:1022DC007B68012283F83C207B68022283F83D2036
:1022EC007B681B689B68FB60FB6823F07703FB60D3
:1022FC00FB6823F47F43FB607B681B68FA689A6079
:10230C003B681B68B3F5005F3ED0B3F5005F00F28D
:10231C008780B3F5805F00F08580B3F5805F7FD850
:10232C00702B1AD0702B7BD8602B50D0602B77D8A9
:10233C00502B3CD0502B73D8402B58D0402B6FD8FF
:10234C00302B64D0302B6BD8202B60D0202B67D84F
:10235C00002B5CD0102B5AD062E07B6818683B686D
:10236C0099683B685A683B68DB6800F066F97B68E3
:10237C001B689B68FB60FB6843F07703FB607B6822
:10238C001B68FA689A604EE07B6818683B6899682D
:10239C003B685A683B68DB6800F04FF97B681B6848
:1023AC009A687B681B6842F480429A603BE07B68C9
:1023BC0018683B6859683B68DB681A4600F0C6F839
:1023CC007B681B685021184600F01DF92BE07B68D8
:1023DC0018683B6859683B68DB681A4600F0E4F8FB
:1023EC007B681B686021184600F00DF91BE07B68C8
:1023FC0018683B6859683B68DB681A4600F0A6F819
:10240C007B681B684021184600F0FDF80BE07B68E8
:10241C001A683B681B681946104600F0F4F802E095
:10242C0000BF00E000BF7B68012283F83D207B6881
:10243C00002283F83C20002318461037BD4680BD8F
:10244C0080B483B000AF786000BF0C37BD4680BC51
:10245C00704780B483B000AF786000BF0C37BD46C6
:10246C0080BC704780B483B000AF786000BF0C377D
:10247C00BD4680BC704780B483B000AF786000BFAD
:10248C000C37BD4680BC704780B485B000AF786017
:10249C0039607B681B68FB607B68294A93420BD0D0
:1024AC007B68B3F1804F07D07B68264A934203D0F8
:1024BC007B68254A934208D1FB6823F07003FB60CC
:1024CC003B685B68FA681343FB607B681C4A934269
:1024DC000BD07B68B3F1804F07D07B68194A9342CD
:1024EC0003D07B68184A934208D1FB6823F44073ED
:1024FC00FB603B68DB68FA681343FB60FB6823F006
:10250C0080023B685B691343FB607B68FA681A6066
:10251C003B689A687B68DA623B681A687B689A62E7
:10252C007B68074A934203D13B681A697B681A633C
:10253C007B6801225A6100BF1437BD4680BC7047CE
:10254C00002C0140000400400008004080B487B01B
:10255C0000AFF860B9607A60FB681B6A7B61FB684E
:10256C001B6A23F00102FB681A62FB689B693B61E2
:10257C003B6923F0F0033B617B681B013A69134311
:10258C003B617B6923F00A037B617A69BB68134367
:10259C007B61FB683A699A61FB687A691A6200BFD1
:1025AC001C37BD4680BC704780B487B000AFF86064
:1025BC00B9607A60FB681B6A23F01002FB681A6230
:1025CC00FB689B697B61FB681B6A3B617B6923F43D
:1025DC0070437B617B681B037A6913437B613B69A6
:1025EC0023F0A0033B61BB681B013A6913433B61B9
:1025FC00FB687A699A61FB683A691A6200BF1C37FA
:10260C00BD4680BC704780B485B000AF786039603F
:10261C007B689B68FB60FB6823F07003FB603A6887
:10262C00FB68134343F00703FB607B68FA689A600E
:10263C0000BF1437BD4680BC704780B487B000AF74
:10264C00F860B9607A603B60FB689B687B617B6972
:10265C0023F47F437B613B681A027B681A43BB6897
:10266C0013437A6913437B61FB687A699A6000BFF4
:10267C001C37BD4680BC704780B485B000AF786015
:10268C0039607B6893F83C30012B01D1022346E082
:10269C007B68012283F83C207B68022283F83D2072
:1026AC007B681B685B68FB607B681B689B68BB6016
:1026BC00FB6823F07003FB603B681B68FA681343EC
:1026CC00FB607B681B68FA685A607B681B68164A5B
:1026DC0093420ED07B681B68B3F1804F09D07B68A6
:1026EC001B68124A934204D07B681B68104A9342C1
:1026FC000CD1BB6823F08003BB603B685B68BA6895
:10270C001343BB607B681B68BA689A607B680122C4
:10271C0083F83D207B68002283F83C200023184678
:10272C001437BD4680BC7047002C014000040040AB
:10273C000008004080B483B000AF786000BF0C3755
:10274C00BD4680BC704780B483B000AF786000BFDA
:10275C000C37BD4680BC704770B500260C4D0D4C37
:10276C00641BA410A64209D100F022F800260A4DE1
:10277C000A4C641BA410A64205D170BD55F8043B4D
:10278C0098470136EEE755F8043B98470136F2E7D7
:10279C00F4270008F4270008F4270008F82700089D
:1027AC0003460244934200D1704703F8011BF9E73A
:1027BC00F8B500BFF8BC08BC9E467047F8B500BF22
:0827CC00F8BC08BC9E467047F2
:1027D40002030405060708090A0B0C0D0E0F10105E
:1027E40000000000000000000102030406070809BD
:0427F40031010008A7
:0427F8000D010008C7
:1027FC000020000004000000008000000100000028
:10280C0001000000010000000100000001000000B8
:10281C0001000000010000000100000001000000A8
:10282C000100000001000000010000002C0100006C
:10283C0070170000D0070000A00F0000030000007C
:10284C000A0000000024F400100000000100000049
:04000005080010DD02
:00000001FF
